:020000040800F2
:1000000090080020390300086F6B0008793D000854
:100010006D6B00082F050008198100080000000022
:1000200000000000000000000000000087710008D0
:10003000010D000800000000B56C0008897100087F
:100040005303000853030008530300085303000838
:100050005303000853030008530300085303000828
:100060005303000853030008530300082108000845
:100070002D08000853030008530300085303000829
:1000800053030008530300085303000853030008F8
:1000900053030008530300085303000853030008E8
:1000A00053030008530300085303000853030008D8
:1000B00053030008530300085303000853030008C8
:1000C00053030008530300085303000853030008B8
:1000D00053030008530300085303000853030008A8
:1000E00053030008530300080000000053030008F6
:1000F0005303000853030008530300085303000888
:100100005303000853030008530300085303000877
:100110005303000853030008530300085303000867
:100120005303000853030008530300085303000857
:100130005303000853030008530300085303000847
:1001400000000000000000000000000000000000AF
:100150005303000853030008530300085303000827
:100160005303000853030008530300085303000817
:10017000530300085303000825070008000000008F
:1001800053030008530300085303000853030008F7
:1001900053030008530300085303000853030008E7
:1001A00053030008530300085303000853030008D7
:1001B00053030008530300085303000853030008C7
:1001C00053030008530300085303000853030008B7
:1001D00053030008530300085303000853030008A7
:1001E0005303000853030008530300085303000897
:1001F0005303000853030008530300085303000887
:100200005303000853030008530300085303000876
:100210005303000853030008530300085303000866
:1002200053030008530300085303000800000000B4
:1002300053030008530300080000000053030008A4
:100240005303000853030008530300085303000836
:100250005303000853030008530300085303000826
:100260005303000853030008530300085303000816
:100270005303000853030008530300080000000064
:100280005303000853030008530300080000000054
:10029000000000005303000800F002F800F03CF8F2
:1002A0000AA090E8000C82448344AAF10107DA45D1
:1002B00001D100F031F8AFF2090EBAE80F0013F0E7
:1002C000010F18BFFB1A43F001031847A8C900002B
:1002D000C8C90000103A24BF78C878C1FAD85207BC
:1002E00024BF30C830C144BF04680C6070470000B0
:1002F0000023002400250026103A28BF78C1FBD82F
:10030000520728BF30C148BF0B6070471FB508F0C7
:100310001DF81FBD10B510BD00F0CFF81146FFF756
:10032000F5FF07F03DFF00F0EDF803B4FFF7F2FF33
:1003300003BC00F0F5F80000094880470948004771
:10034000FEE7FEE7FEE7FEE7FEE7FEE7FEE7FEE785
:10035000FEE7FEE704480549054A064B70470000E2
:100360003D720008990200089002002090080020C9
:10037000900400209004002053EA020C00F06980F1
:100380002DE9F04B4FF00006002B1FBFB3FA83F5A9
:1003900003FA05F424FA05F65E4012BF1643B2FADA
:1003A00082F502FA05F4C5F120051EBF22FA05FC0C
:1003B00044EA0C04203556EA044C4FEA144418BFB2
:1003C000641C4FF000084FF00009904271EB030CE1
:1003D00039D3002919BFB1FA81F701FA07F6B0FA4B
:1003E00080F700FA07F6C7F120071EBF20FA07FCC6
:1003F00046EA0C062037B6FBF4FCA7EB0507103FD6
:1004000007F01F0BCBF120060CFA0BFB2CFA06F6BB
:1004100044BFB3460026202FA4BF5E464FF0000B1A
:100420005BEA060C08BF4FF0010B19EB0B09ABFBA5
:10043000027C48EB0608C01B06FB02CC0BFB03CC7E
:1004400071EB0C01C1E70B46024641464846BDE848
:10045000F08B13B54FF000004FF00001AFF30080B8
:10046000BDE81C4070474FF0000200B513469446AB
:100470009646203922BFA0E80C50A0E80C50B1F1FC
:100480002001BFF4F7AF090728BFA0E80C5048BF10
:100490000CC05DF804EB890028BF40F8042B08BFAE
:1004A000704748BF20F8022B11F0804F18BF00F8AA
:1004B000012B7047704770477047754600F02CF865
:1004C000AE4605006946534620F00700854618B041
:1004D00020B5FFF73FFFBDE820404FF000064FF08A
:1004E00000074FF000084FF0000B21F00701AC4669
:1004F000ACE8C009ACE8C009ACE8C009ACE8C00988
:100500008D46704710B50446AFF300802046BDE825
:100510001040FFF70ABF0000004870472C0200207F
:1005200001491820ABBEFEE7260002007047FEE737
:1005300010B5806B816C496D022906D0012180F8CD
:100540003510C16C41F04001C16400F075FC10BD74
:100550002DE9FF4F6C4981B0DDF838E00A6842F0C0
:1005600001020A600868694C00F0010000906948C7
:100570006749DFF89C91DFF898A1846409F1480984
:10058000A0630AF1600ADFF888B12068624E0BF1BF
:10059000780B884232D0B04230D05F49183188425F
:1005A0002CD048452AD0504528D0584526D05A4905
:1005B0007831884222D05849903188421ED057491C
:1005C00088421BD055491831884217D053493031E1
:1005D000884213D05149483188420FD04F49603189
:1005E00088420BD04D497831884207D04B49903131
:1005F000884203D04949A831884203D1016821F0DB
:10060000100102E0016821F002010160002526606E
:100610004B204FF001084FF480514FF0040CC4E917
:100620000105C4E9035EC4E90A8525630A114F0187
:100630003648C4E9051304F11C0181E8841000F078
:1006400013FF324801F07CFB0298354984F834509E
:10065000F0B3039800902D48DDE9012300F030FD50
:100660002B492068884232D0B04230D02A49183114
:1006700088422CD048452AD0504528D0584526D00D
:1006800025497831884222D02349903188421ED0B2
:10069000224988421BD021491831884217D01F496E
:1006A0003031884213D01D49483188420FD01B4950
:1006B000603188420BD019497831884207D01749F8
:1006C0009031884203D01549A83188420DD100E00D
:1006D00003E0016841F010010AE0039B019A05B0B4
:1006E0000A48BDE8F04F01F095BC016841F00201F5
:1006F0000160032202210C2001F09CFF05B00C20B8
:10070000BDE8F04F01F088BFD844025890000020A7
:100710001000024040000020280002401004024067
:1007200028000248014800F095BB0000400000206E
:1007300070B50E4C20200C4E00252660C4E90150F7
:10074000E560204625616561A56100F0D1FBF5609B
:100750002068C16841F00101C1602068016841F46E
:100760008041016070BD0000000002484000002090
:100770000021084610B505F0E7FE06F0E5F824482C
:1007800024490068884238D022491831884234D040
:1007900020493031884230D01E49483188422CD01F
:1007A0001C496031884228D01A497831884224D0C7
:1007B00018499031884220D01649A83188421CD06F
:1007C0001549884219D014491831884215D0124968
:1007D0003031884211D01049483188420DD00E493D
:1007E0006031884209D00C497831884205D00A49E5
:1007F0009031884201D00849A831016841F00101D7
:1008000001600648016841F00101016010BD00006F
:100810009000002010000240100402400000024836
:10082000014800F015BF0000900000202DE9F041C4
:1008300034480021344C354E344B603C324F603EDE
:100840000068B83B314DB84201D9314A03E0A042BB
:1008500003D92D4AB43A126809E0A84202D92A4ABB
:10086000B83AF8E7B04201D95A6800E01A6812F4C1
:10087000006F44D0B8424FF4006202D92448001DF2
:1008800008E0A04202D92048AC3803E0A84203D9CE
:100890001D48B038026004E0B04201D9DA6000E0DF
:1008A0009A604FF416431B4A1B4C5068401C506022
:1008B000012808D1194D00BF35F8116024F81160E6
:1008C000491C9942F8DB02280FD1002151600846EB
:1008D000134900BF04EB400231F8105002F590328A
:1008E000401C9842A2F8005CF4DB00254FF49636D9
:1008F00034F8150006F022F86D1CB542F8DBBDE8AF
:10090000F081000090000020B8040240B8000240CE
:10091000005402580C0000200000A0680000C068CD
:100920000000B068294A016891423AD0274A18323B
:10093000914236D0254A3032914232D0234A483251
:1009400091422ED0214A603291422AD01F4A7832F9
:10095000914226D01D4A9032914222D01B4AA832A1
:1009600091421ED01A4A91421BD0194A1832914224
:1009700017D0174A3032914213D0154A483291426B
:100980000FD0134A603291420BD0114A7832914213
:1009900007D00F4A9032914203D00D4AA8329142BB
:1009A00011D1CAB21823103AB2FBF3F26FF3090166
:1009B000032A02F00703074AD25CC26500D9091D69
:1009C00081650846704721F0FF01F9E710000240F9
:1009D000100402405ACC000830B5224A01230168B5
:1009E0009142CAB21BD01F4C1434A14217D01D4CE7
:1009F0002834A14213D01B4C3C34A1420FD0194CD7
:100A00005034A1420BD0174C6434A14207D0154C8E
:100A10007834A14203D0134C8C34A1420CD1142160
:100A2000114C083AB2FBF1F10F4A803201F01F0578
:100A300004EB8101AB4010E00C4D1824103A0D443A
:100A4000B2FBF4F1A82D00D80831094A01F01F04C7
:100A500002EB8101064AA3408032603080E80E003C
:100A600030BD00000854025800580258F0FBFDBF8A
:100A70000008024010B50279531E072B2DD8174CE1
:100A80000168A1421BD0154C1434A14217D0134C5D
:100A90002834A14213D0114C3C34A1420FD00F4C4A
:100AA0005034A1420BD00D4C6434A14207D00B4C02
:100AB0007834A14203D0094C8C34A14203D10849B7
:100AC000074C443102E00749064C443104EB8202F2
:100AD000C0E91B2101219940416710BD085402580B
:100AE000FC580258FC08024010B583694FF0C074EE
:100AF000826A0146002053B1B3F5005F15D072B190
:100B0000012A0CD0022A0AD0032A09D104E01AB122
:100B1000012A06D0022A03D1C96AC90100D50120E1
:100B200010BDC96AA142FAD010BD002AF7D0012A2F
:100B3000F2D0022AF3D0032AF3D010BD30B5254DF0
:100B40000468AC4238D0234D1835AC4234D0214D26
:100B50003035AC4230D01F4D4835AC422CD01D4D05
:100B60006035AC4228D01B4D7835AC4224D0194DAD
:100B70009035AC4220D0174DA835AC421CD0164D54
:100B8000AC4219D0144D1835AC4215D0124D303549
:100B9000AC4211D0104D4835AC420DD00E4D6035F1
:100BA000AC4209D00C4D7835AC4205D00A4D903599
:100BB000AC4201D0084DA83563608368402B0368C0
:100BC00003D099600068C26030BD9A600068C1605F
:100BD00030BD0000100002401004024070B5D0E9A2
:100BE0001964856D7460C46E14B1D0E91C466660EA
:100BF000404E0468B4423AD03E4E1836B44236D025
:100C00003C4E3036B44232D03A4E4836B4422ED002
:100C1000384E6036B4422AD0364E7836B44226D0AA
:100C2000344E9036B44222D0324EA836B4421ED052
:100C3000314EB4421BD0304E1836B44217D02E4E2F
:100C40003036B44213D02C4E4836B4420FD02A4E20
:100C50006036B4420BD0284E7836B44207D0264EC8
:100C60009036B44203D0244EA836B44214D190F842
:100C70005C603F2406F01F06B440AC600468256841
:100C800025F4802525602DE09A600068C16070BD64
:100C900099600068C26070BD184EB4421BD0174EF8
:100CA0001436B44217D0154E2836B44213D0134E22
:100CB0003C36B4420FD0114E5036B4420BD00F4EDA
:100CC0006436B44207D00D4E7836B44203D00B4E92
:100CD0008C36B442DFD190F85C60012406F01F0628
:100CE000B4406C60046863608368402B0368CFD1B4
:100CF000CAE70000100002401004024008540258E5
:100D000070477047F0B5B3F5804F05D06FF0704174
:100D100040F822100020F0BD91E838008F898E69DC
:100D200050F8221024013343054E44EA052423439E
:100D3000314043EA07430B4340F82230EAE7000022
:100D40000000F0CFF0B50A6850F8223023F001031C
:100D500040F822308C68082C28D000234A68D1E95A
:100D60000356143122431D432A4338C932431A43E0
:100D700022432A4391E838001A4351F8203C224389
:100D8000D1E903642A43324350F82370D1E9055670
:100D900022430E4C2A43274032433A4340F8232053
:100DA0000A692039B2F5801F02D007E04023D5E759
:100DB0000A684AB1026842F4801202600A681AB1F5
:100DC0000268496B0A4302600020F0BD8004C0FF46
:100DD000F0B58C6800EB8202D1E90036B1F80CE086
:100DE0004FEA042C134C0D8A43EA06130E7D67016B
:100DF0004CEA0E4C43EA0C0304EB05552B438D697A
:100E000007EB0666576833432B4307F040452B43F7
:100E100053600268D2020BD5098A4268436804EB2A
:100E2000015122F47002114323F470030B43436019
:100E30000020F0BD0000F0FF70470000044A117868
:100E4000491C11700068C16841F00101C160704720
:100E50000C0000202DE9F04104460068234F0426D1
:100E6000056969070BD54661E06C40F00200E0645B
:100E700084F83560A06C0765A06C00F00FFAA80735
:100E80000DD5216802204861E06C40F00100E0646B
:100E900084F83560A06C0765A06C00F0FFF9E806E7
:100EA00005D5216810204861204600F067F8280722
:100EB00005D5216808204861204600F0FFF8E807C2
:100EC00012D020680168890703D5C16821F01E018E
:100ED000C16020680121C26822F00102C26020685E
:100EE00041612046FFF7AAFFBDE8F0813105000807
:100EF00070B5040003D094F8350010B104E001206F
:100F000070BD204600F03CF8022084F835002068CF
:100F1000194A016811400160D4E90453E168D4E939
:100F2000010229431843A36908431043D4E9081573
:100F30001843084354F8281B28432CCC10430A6854
:100F4000184328431043086054F8300C343C1028F0
:100F500005D12268E17FE06961F31F60906120683C
:100F600000220121C36843F01E03C360E26484F8D9
:100F70003510104670BD000007F0E0FF704700001C
:100F80002DE9F04186B0804614216846FFF76BFAE0
:100F90004249D8F8000088427DD14148016841F0BB
:100FA00001010160006800F0010005903C48001D4F
:100FB000016841F010010160016801F01001059124
:100FC000016841F001010160016801F00101059132
:100FD000016841F004010160016801F0040105911C
:100FE000016841F0020101600068022400256946A1
:100FF00000F00200059060200D268DE831002948A0
:10100000CDE9035601F044F9502069468DE83100DE
:101010002548CDE9035601F03BF94FF43C606946A1
:101020008DE831002148CDE9035601F031F9C020A7
:1010300069468DE831001E48CDE9035601F028F9D4
:101040001C4C4B211C484FF0030C206002156160C2
:101050000421A5608314C4E903528715C4E90AC5B5
:10106000D0012563C4E9080104F1140120461601EA
:1010700081E8C80000F064FE08B1FFF742FE0022DC
:10108000C8F848404E201146C4F8388001F0D2FA22
:101090004E2001F0C1FA06B0BDE8F0810000024820
:1010A000DC440258001002580000025800080258A0
:1010B0000004025890000020280002407047000001
:1010C0002DE9FF5F04468068002596460E9A802829
:1010D00011D094F83400012810D094F83500012183
:1010E00084F8341001280BD0C80260650125284619
:1010F00004B0BDE8F09F4FF48070F6E70220F7E7F8
:10110000DFF880A1002720684FF0020C84F835C07A
:1011100050455D4E67655D4FDFF87491DFF874B13F
:1011200047D0B04245D0B84243D0484541D0584559
:101130003FD0DFF860C10CF1180C604539D0DFF802
:1011400054C10CF1300C604533D0DFF848C10CF1CC
:10115000480C60452DD0DFF840C1604529D0DFF84C
:1011600038C10CF1180C604523D0DFF82CC10CF10C
:10117000300C60451DD0DFF820C10CF1480C6045F3
:1011800017D0DFF814C10CF1600C604511D0DFF806
:1011900008C10CF1780C60450BD0DFF8FCC00CF1F5
:1011A000900C604505D0DFF8F0C00CF1A80C60454C
:1011B00010D1D0F800C03F214CF4802CC0F800C002
:1011C0002068036194F85C30A06D03F01F03994020
:1011D000816010E0D0F800C048F220084CEA080C0A
:1011E000C0F800C02068036194F85C30A06D03F083
:1011F0001F03994041601346019972462046FFF74C
:101200009DFCD4E919014160E06E10B1D4E91C01E4
:1012100041602068504530D0B0422ED0B8422CD02A
:1012200048452AD0584528D01A491831884224D038
:1012300018493031884220D01649483188421CD0A4
:101240001549884219D014491831884215D01249DD
:101250003031884211D01049483188420DD00E49B2
:101260006031884209D00C497831884205D00A495A
:101270009031884201D00849A831016841F001014C
:10128000016034E7100002402800024040000240A4
:101290005800024070000240100402402DE9F05F47
:1012A00028B190F83510022904D080214165012031
:1012B000BDE8F09F634A634B624F183201683033D8
:1012C000614C624DB942DFF888A1DFF88891DFF800
:1012D00088B1DFF88881DFF888E1624E32D0914230
:1012E00030D099422ED0A1422CD0A9422AD05145CB
:1012F00028D0494526D0594524D0C446614521D03F
:10130000DFF858C10CF1180C61451BD0DFF84CC157
:101310000CF1300C614515D0DFF844C1ACF1300C54
:1013200061450FD0DFF838C1ACF1180C614509D028
:10133000714507D0DFF828C10CF1180C614501D0C8
:10134000B1422ED14FF0040C80F835C0B94223D001
:10135000914221D099421FD0A1421DD0A9421BD059
:10136000514519D0494517D0594515D0414513D09D
:101370003A48183081420FD03848303081420BD083
:1013800037483038814207D035481838814203D079
:10139000714501D032481830086820F0010008601B
:1013A0004DE0D1F8008028F00E08C1F800800168F7
:1013B000B9421ED091421CD099421AD0A14218D0F5
:1013C000A94216D0514514D0494512D0594510D0E4
:1013D000224A91420DD0214A1832914209D01F4A27
:1013E0003032914205D01E4A303A914201D01C4A17
:1013F000183A0A6822F001020A60026E012113689D
:1014000023F48073136090F85C30826D03F01F0347
:1014100001FA03F35360D0E919235360C26E32B16D
:10142000136823F480731360D0E91C2353600023F6
:10143000026D80F8343080F8351002B190470020FA
:1014400036E70000100002405800024070000240E1
:1014500088000240A0000240B80002401004024090
:1014600088040240B80402402DE9F05F04007DD0FA
:101470006D4A6D4B6C491832206830336B4E6C4F9F
:101480008842DFF8B0C1DFF8B081DFF8B091DFF853
:10149000B0A1DFF8B0B1DFF8B0E121D090421FD0A9
:1014A00098421DD0B0421BD0B84219D0604517D029
:1014B000404515D0484513D0504511D058450FD060
:1014C00070450DD0604D1835A84209D05E4D3035BD
:1014D000A84205D05C4D4835A84201D05A4D603530
:1014E000056825F00105056020680025884227D0A1
:1014F000904225D0984223D0B04221D0B8421FD08C
:1015000060451DD040451BD0484519D0504517D0E7
:10151000584515D0704513D04B49183188420FD02B
:101520004949303188420BD047494831884207D079
:1015300045496031884203D043497831884218D107
:101540002121056020684560206885602068C560AD
:1015500020680561206841612046FFF7E3F994F8AF
:101560005C203F2102F01F02914000E059E08160C1
:1015700031E0364988421BD034491431884217D0B3
:1015800032492831884213D030493C3188420FD04B
:101590002E49503188420BD02C496431884207D003
:1015A0002A497831884203D028498C31884238D181
:1015B000056020684560206885602068C5602068F7
:1015C00005612046FFF7AEF994F85C20012102F096
:1015D0001F02914041602046FFF7FEF9206E18B1CE
:1015E0000560D4E9190141606068401E072807D8EA
:1015F0002046FFF73FFAE06E0560D4E91C01416028
:10160000E56625676567E56325646564A564E5644B
:101610002565656584F83550002084F83450BDE8B0
:10162000F09F0120FBE7000010000240580002403C
:101630007000024088000240A0000240B800024052
:10164000100402402804024040040240085402589A
:101650002DE9FC5F0446FA4E0020DFF8E483009099
:101660004FF41652F74808F11808A56DDFF8D0A31B
:10167000DFF8CCB301680AF1300A20680BF1480B9F
:10168000B1FBF2F1B04201912F68D5F800C0DFF84C
:10169000B89336D04146884233D0504531D0584572
:1016A0002FD0E749603188422BD0E5497831884214
:1016B00027D0E3499031884223D0E149A8318842BC
:1016C0001FD048451DD0E0491831884219D0DE4965
:1016D0003031884215D0DC4A4832904211D0DA4984
:1016E000603188420DD0DFF860E30EF1780E70456E
:1016F00007D0D54B9033984203D0D349A8318842C4
:101700007ED194F85C20082102F01F0201FA02F257
:101710003A424BD0B04233D0404531D050452FD023
:1017200058452DD0C64A6032904229D0C44A7832FA
:10173000904225D0C24A9032904221D0C04AA8326D
:1017400090421DD048451BD0BF4A1832904217D056
:10175000BD4A3032904213D0BB4A483290420FD03B
:10176000B94A603290420BD0B74A7832904207D0E3
:10177000B54A9032904203D0B34AA832904203D186
:10178000026802F0040202E0026802F008026AB194
:10179000026822F00402026094F85C0000F01F006E
:1017A0008140A960606D40F00100606594F85C00C4
:1017B000012100F01F008140394241D02068B04231
:1017C00035D0404533D0504531D058452FD09C4A74
:1017D000603290422BD09A4A7832904227D0984A71
:1017E0009032904223D0964AA83290421FD048456A
:1017F0001DD0954A1832904219D0934A303200E0F9
:10180000B2E1904213D0904A483290420FD08E4AB3
:10181000603290420BD08C4A7832904207D08A4A8C
:101820009032904203D0884AA83290427ED14069DB
:1018300010F0800F04D0A960606D40F00200606578
:1018400094F85C00042100F01F00814039423FD031
:101850002068B04233D0404531D050452FD0584554
:101860002DD0774A6032904229D0754A7832904222
:1018700025D0734A9032904221D0714AA8329042CA
:101880001DD048451BD0704A1832904217D06E4A7E
:101890003032904213D06C4A483290420FD06A4A9C
:1018A000603290420BD0684A7832904207D0664A44
:1018B0009032904203D0644AA83290424FD10068DF
:1018C00010F0020F04D0A960606D40F00400606564
:1018D00094F85C00102100F01F008140394259D07B
:1018E0002068B04235D0404533D0504531D05845BE
:1018F0002FD0534A603290422BD0514A78329042D6
:1019000027D04F4A9032904223D04D4AA83290427D
:101910001FD048451DD04C4A1832904219D04A4A2F
:101920003032904215D0484A483200E015E09042EB
:101930000FD0454A603290420BD0434A78329042F1
:1019400007D0414A9032904203D03F4AA832904299
:1019500007D1006800F0080006E0006870E7006842
:10196000B6E7006800F00400A0B1A9602068016833
:10197000490304D50068000308D5A16C07E001689D
:10198000C90503D4016821F008010160216C09B187
:101990002046884794F85C00202100F01F00814019
:1019A000394278D02068B04233D0404531D05045DC
:1019B0002FD058452DD0224A6032904229D0204A5B
:1019C0007832904225D01E4A9032904221D01C4A53
:1019D000A83290421DD048451BD01B4A1832904275
:1019E00017D0194A3032904213D0174A48329042E9
:1019F0000FD0154A603290420BD0134A7832904291
:101A000007D0114A9032904203D00F4AA832904238
:101A100003D1006800F0100002E0006800F002004E
:101A2000A0B3A96094F835000428206801680DD09F
:101A300049037DD50068000329D4616C28E00000CB
:101A400010000240280000201004024021F016017E
:101A500001602068416921F080014161206C08B972
:101A6000A06C20B12068016821F00801016094F8A1
:101A70005C303F21002203F01F0301209940A96040
:101A800084F8342084F83500216D66E003E0E16BD2
:101A900009B120468847606D00287DD0606DC00781
:101AA0005AD02068042184F83510B0422BD040452C
:101AB00029D0504527D0584525D09E49884222D06C
:101AC0009C49183188421ED09A49303188421AD038
:101AD00098494831884216D0484514D096498842E2
:101AE00011D09549183188420DD093493031884240
:101AF00009D091494831884205D08F4960318842E8
:101B000001D08D497831016821F001010160206820
:101B10000099019A491C0091914202D80168C907B5
:101B2000F6D1002184F834100068C00711D000E01D
:101B300001E003200EE00168C905A8D40368002273
:101B4000012123F01003036084F8342084F8351059
:101B50009DE7012084F83500E16C00291CD002B01B
:101B60002046BDE8F05F0847744988421DD073499C
:101B70001431884219D071492831884215D06F49F3
:101B80003C31884211D06D49503188420DD06B49AB
:101B90006431884209D000E086E0684978318842A3
:101BA00003D066498C3188427ED194F85C8004274A
:101BB000016808F01F0807FA08F717EA0C0F0097EA
:101BC00046D04F0744D500980F04686003D5C8037A
:101BD0003CD4A16CC1E7880638D42068B0422DD02F
:101BE00054494839884229D0504527D0584525D0F6
:101BF0005049884222D04F49183188421ED04D4961
:101C0000303188421AD04B494831884216D0484575
:101C100014D04949884211D04749183188420DD023
:101C200090420BD044494831884207D0704505D0D6
:101C3000984203D040499031884203D1016821F095
:101C4000080102E0016821F004010160216C84E7D1
:101C5000022707FA08F717EA0C0F00974ED08F07F4
:101C60004CD500980F04686003D5C80344D4616C58
:101C700073E7880640D42068B0422FD02D494839F8
:101C800088422BD0504529D0584527D02949884231
:101C900024D028491831884220D026493031884242
:101CA0001CD02449483100E041E0884216D0484524
:101CB00014D02149884211D01F49183188420DD0D3
:101CC00090420BD01C494831884207D0704505D05E
:101CD000984203D018499031884203D1016821F01D
:101CE000140102E0016821F00A010160002184F87A
:101CF0003410012084F83500E16B2EE7082202FA47
:101D000008F212EA0C0F12D0090710D5016821F071
:101D10000E01016094F85C100120002201F01F0107
:101D200000FA01F16960606584F8342012E7BDE8CB
:101D3000FC9F000070000240280402400854025832
:101D40002DE9F05F044600F0B1FB002C074676D089
:101D5000A5494FF00106A44A4FF00005206818314C
:101D6000DFF88C82DFF88C929042A04ADFF888A2DC
:101D7000DFF888B2DFF888E22CD088422AD090427F
:101D800028D0404526D0484524D0504522D058453B
:101D900020D070451ED09B4B98421BD0994B1833D6
:101DA000984217D0974B3033984213D0954B483315
:101DB00098420FD0934B603398420BD0914B7833BD
:101DC000984207D08F4B9033984203D08D4BA83365
:101DD000984275D1DFF810C2022384F8345084F899
:101DE0003530604526D0884224D0904222D04045EC
:101DF00020D048451ED050451CD058451AD07045BB
:101E000018D08049884215D07E491831884211D0B7
:101E10007C49303188420DD07A494831884209D016
:101E200078496031884205D076497831884201D0BE
:101E300074499031016821F00101016007E0B4E0CC
:101E400000F034FBC01B052801D92021A9E020683F
:101E50000068C007F4D104F108002168D4E9053C0A
:101E6000894685C809681043D4E907281F43636A77
:101E70003843654F40EA0C001043394040EA0800FF
:101E8000042B40EA010003D1D4E90B1211430843AB
:101E9000C9F800002068676A4069042F20F0070035
:101EA00047EA00070DD1D4E90A01074349B12046AA
:101EB000FEF71AFE28B14020606584F8356074E0B2
:101EC0000CE0206847612046FEF72CFD94F85C206A
:101ED0003F2102F01F029140816055E04B4988424A
:101EE0001BD04A491431884217D0484928318842CA
:101EF00013D046493C3188420FD044495031884282
:101F00000BD042496431884207D040497831884239
:101F100003D03E498C31884242D13D4B022184F8A6
:101F2000345084F835100168A26801EA0309402A98
:101F300031D0802A31D00022D4E90378D4E90531A8
:101F400042EAD70242EAD808304AD4E9077C48EA94
:101F5000D30848EAD10141EAD701524241EA1C11B3
:101F6000142341EA0901016020681044B0FBF3F03A
:101F70008000E0652046FEF7D5FC94F85C1001F087
:101F80001F0106FA01F141602046FEF725FDA06819
:101F900080280DD00DE01022CEE74FF48042CBE731
:101FA00040216165032084F835000120BDE8F09FE1
:101FB0006560216E20790860D4E91901416060688C
:101FC000401E072808D82046FEF754FDE06E056045
:101FD000D4E91C01416002E0E56625676567656537
:101FE00084F835600020E1E7100002404000024024
:101FF000580002407000024088000240A0000240E9
:10200000B8000240100402403F8010FE08540258FD
:102010000F00FEFF2DE9F05F04004FF0000514D023
:1020200094F83400012812D094F8356001204FF064
:10203000000C84F83400012E0BD0C00284F834C0A8
:10204000012560652846BDE8F09F0120FBE70220DE
:10205000F9E7454E0227206884F83570B042434FB7
:10206000C4F854C0DFF80881DFF80891DFF808A150
:10207000DFF808B13BD0B84239D0404537D04845A9
:1020800035D0504533D0584531D0DFF8F0C00CF191
:10209000180C60452BD0DFF8E4C00CF1300C604523
:1020A00025D0DFF8DCC0604521D0DFF8D4C00CF1CA
:1020B000180C60451BD0DFF8C8C00CF1300C60452F
:1020C00015D0DFF8BCC00CF1480C60450FD0DFF82C
:1020D000B0C00CF1600C604509D0DFF8A4C00CF171
:1020E000780C604503D0DFF898C00CF1900CD0F864
:1020F00000C02CF0010CC0F800C02046FEF76EFDB9
:102100002068B0422AD0B84228D0404526D0484561
:1021100024D0504522D0584520D018491831884243
:102120001CD016493031884218D01549884215D044
:1021300013491831884211D01149303188420DD0ED
:102140000F494831884209D00D496031884205D095
:102150000B497831884201D009499031016841F03A
:10216000010101606EE700001000024028000240FB
:1021700040000240580002407000024088000240C7
:102180001004024070B5044600F090F90546601C4A
:1021900002D004480078044400F088F9401BA042B3
:1021A000FAD370BD1C000020F0B587B0142168463A
:1021B000FEF759F93048016800295BD10124046019
:1021C0002E48016841F480510160006800F480509D
:1021D00005902A480C30016841F00801016001684F
:1021E00001F008010591016841F0100101600168EA
:1021F00001F010010591016841F0400101600168A2
:1022000001F040010591016841F020010160006882
:10221000022502AA694600F0200005904FF23F0017
:10222000CDE90005032616480C2782E8D00000F00F
:102230002FF802AA41F23F40CDE900051148694656
:1022400082E8D00000F024F802AA4FF68370CDE9AE
:1022500000050D48694682E8D00000F019F802AA8E
:102260004FF63370CDE900050848694682E8D00092
:1022700000F00EF807B0F0BD14000020D44402585E
:10228000001402580018025800100258000C02589E
:102290002DE9F84F714C00234FF0B04E4FF001097B
:1022A0004FF0030B4FF00F0AD0E000BF09FA03F81C
:1022B00012EA080274D04D68022D01D0122D0FD100
:1022C000DD085F0700EB850500950E692D6AFF0E9E
:1022D0000AFA07FCBE4025EA0C052E43009D2E623B
:1022E0005D000F7906680BFA05FC07F0030726EA84
:1022F0000C06AF40374307604E68012E05D0022E12
:1023000003D0112E01D0122E0FD18668CF6826EA95
:102310000C06AF403743876046680F7926EA080607
:10232000C7F300179F4037434760C6688F6826EAA7
:102330000C06AF403743C7604D68ED0030D5484DBF
:102340002E6846F002062E602D6823F0030606F183
:10235000B04605F0020500959D072F0FD6F80854EA
:10236000DFF800810AFA07FC404525EA0C0502D196
:102370004FF0000C41E0DFF8F0C0604502D14FF0B3
:10238000010C3AE0DFF8E4C0604502D14FF0020CE6
:1023900033E0DFF8DCC0604503D14FF0030C2CE0E4
:1023A00053E0DFF8D0C0604502D14FF0040C24E0C8
:1023B000DFF8C4C0604502D14FF0050C1DE0DFF826
:1023C000BCC0604502D14FF0060C16E0DFF8B0C08B
:1023D000604502D14FF0070C0FE0DFF8A8C0604560
:1023E00002D14FF0080C08E0DFF89CC0604502D134
:1023F0004FF0090C01E04FF00A0C0CFA07FC4CEA14
:10240000050CC6F808C425684E6825EA0205F603DF
:1024100000D51543256065684E6825EA0205B603B8
:1024200000D5154365604F687546DEF80060FF0211
:1024300026EA020600D516432E604F686E68BF027A
:1024400026EA020600D516436E605B1C0A6832FA63
:1024500003F57FF42BAFBDE8F88F00008000005833
:10246000F4440258000002580004025800080258C0
:10247000000C0258001002580014025800180258AC
:10248000001C02580020025800240258006908402D
:1024900000D0012070470AB1816170470904FBE751
:1024A00001480068000C70470010005C014880681B
:1024B000704700001C000020024881680278114427
:1024C000816070471C000020032010B500F0D2F896
:1024D00001F02EF80E490F4A0F4B0C68C4F3032489
:1024E000145D04F01F04E0401860096801F00F015A
:1024F000515C01F01F01C84008490860002000F04D
:102500000FF808B1012010BD00F078F8002010BDD0
:102510001844025862CC0008280000202C0000203B
:1025200070B50D4D04462878A0B14FF47A71B1FB17
:10253000F0F00A490968B1FBF0F001F035FB48B949
:10254000102C07D200222146501E00F073F8002004
:102550006C6070BD012070BD1C00002028000020B0
:10256000F0B5154C4378211D0A1D23600378F3B1A3
:1025700043680B60057BC67A817A437B2D07847B99
:1025800045EA0665C77B90F809C0067A90F800E036
:1025900045EAC14040EA834040EA444040EA0740FF
:1025A00040EA0C2040EA460040EA0E0001E000202C
:1025B00008601060F0BD000098ED00E0BFF35F8F91
:1025C000044800210368034A23F480330360703217
:1025D0001160704724ED00E0074A40F00100064911
:1025E00070321060086840F480300860BFF34F8F8D
:1025F000BFF36F8F7047000024ED00E0054808B579
:10260000016841F002010160006800F002000090E2
:1026100008BD0000F4440258002809DB410900F01D
:102620001F028900012001F1E0219040C1F8000162
:10263000704700000E4BF0B41B680D46C3F3022335
:10264000C3F10706042E00D90426191D072901D25B
:10265000002300E0DB1E012404FA06F19C40491E21
:102660002940641E994014402143F0BC05F055BD3B
:102670000CED00E0064900F0070210B54FF6FF042C
:102680000868044B204040EA02201843086010BD4F
:102690000CED00E00000FA05124970B50A68520717
:1026A00006D40A6802F00702824201D0012070BD00
:1026B0000A6822F0070202430A60FFF7F7FE094D9D
:1026C0004FF47A760446083D07E000BFFFF7EEFEC0
:1026D000001BB04201D9032070BD28688004F5D5E5
:1026E000002070BD0C48025810B500F021FF064ACA
:1026F00006491268064BC2F303229A5C02F01F02DD
:10270000D040086010BD0000184402582800002086
:1027100062CC000810B500F0D1FE05490968054AF1
:10272000C1F30211515C01F01F01C84010BD00004F
:102730002044025862CC0008494930B5484C0B1D72
:102740000A68143409681D68246802F0030305F060
:102750001002C1F30531C4F3CC04002914FB02F2CA
:1027600000EE102AF8EE400A75D03F4A9FED3D1A60
:10277000B7EE000A6BB1DFED3D1A012B01D0022B41
:1027800064D002EE101A1168F8EE422A81EEA22AF5
:1027900021E0334C283C23689B0612D5344B246837
:1027A00001EE901A1168C4F3C104F8EE612AE34007
:1027B00001EE903AC1F30801F8EE611A81EEA22A07
:1027C0000BE001EE901ADFED2B2A00BFF8EE611A44
:1027D000116882EEA12AC1F3080101EE901A116876
:1027E000F8EE611A40EE811A71EE800A62EE200A5C
:1027F000C1F3462101EE101AB8EE411A31EE001A6B
:10280000C0EE811ABCEEE11A80ED001A1168C1F326
:10281000064101EE101AB8EE411A31EE001AC0EE70
:10282000811ABCEEE11A80ED011A1168C1F306614C
:1028300001EE101AB8EE411A31EE000A80EE801A4D
:10284000BCEEC10A80ED020A30BD04E001EE901A30
:10285000DFED092ABAE70021016041608160F3E7FA
:102860002844025800000039384402580024744AB1
:102870000090D0030024744C0024F44A494930B538
:10288000484C0B1D0A681C3409681D68246802F056
:10289000030305F48072C1F30551C4F3CC0400298D
:1028A00014FB02F200EE102AF8EE400A75D03F4AFF
:1028B0009FED3D1AB7EE000A6BB1DFED3D1A012B1B
:1028C00001D0022B64D002EE101A1168F8EE422AF1
:1028D00081EEA22A21E0334C283C23689B0612D5C6
:1028E000344B246801EE901A1168C4F3C104F8EE69
:1028F000612AE34001EE903AC1F30801F8EE611A53
:1029000081EEA22A0BE001EE901ADFED2B2A00BF28
:10291000F8EE611A116882EEA12AC1F3080101EEF6
:10292000901A1168F8EE611A40EE811A71EE800A71
:1029300062EE200AC1F3462101EE101AB8EE411AE8
:1029400031EE001AC0EE811ABCEEE11A80ED001AD9
:102950001168C1F3064101EE101AB8EE411A31EECA
:10296000001AC0EE811ABCEEE11A80ED011A11685E
:10297000C1F3066101EE101AB8EE411A31EE000AF9
:1029800080EE801ABCEEC10A80ED020A30BD04E080
:1029900001EE901ADFED092ABAE7002101604160DB
:1029A0008160F3E72844025800000039404402588F
:1029B0000024744A0090D0030024744C0024F44A8C
:1029C0002DE9FC5F044650F8241B002500902E469C
:1029D0000801FE4FDFF8F8931DD5606E50B1B0F5D9
:1029E000801F0CD0B0F5001F0ED0B0F5401F1DD0D9
:1029F00001250FE0386840F40030386016E002210D
:102A0000201D04F059F903E00098022104F0E4F9D4
:102A100005000BD02E462088C00523D5606D052803
:102A20001ED2DFE800F00C11161B1B00626ED9F8F5
:102A3000001021F440111143C9F80010EBE7386889
:102A400040F40030386009E00021201D04F034F922
:102A500003E00098002104F0BFF905466DB100E0E5
:102A600001252E462088800528D5A06D80281ED0FF
:102A70000CDC90B140280ED114E0626DD9F8001042
:102A800021F007011143C9F80010EBE7C02813D06B
:102A9000B0F5807F10D001250FE0386840F4003099
:102AA000386009E00021201D04F006F903E00098D9
:102AB000002104F091F9054695B12E462088DFF8F3
:102AC0001083400508F108082CD5D4F8A400B0F50F
:102AD000800F20D00DDCA0B1B0F5001F0FD115E0A4
:102AE000A26DD9F8001021F4E0711143C9F800106B
:102AF000E4E7B0F5C00F13D0B0F5000F10D00125FA
:102B00000FE0386840F40030386009E00021201DF3
:102B100004F0D2F803E00098002104F05DF90546C6
:102B200075B12E46208800052DD5D4F8A800B0F147
:102B3000007F21D00EDCA8B1B0F1807F10D116E06B
:102B4000D4F8A420D8F8001021F460011143C8F88B
:102B50000010E7E7B0F1407F13D0B0F1806F10D0E4
:102B600001250FE0386840F40030386009E00021AA
:102B7000201D04F0A1F803E00098002104F02CF9D6
:102B800005466DB12E46206880011FD5A06CD8B1D6
:102B900010280FD0202812D0302815D0012514E09D
:102BA000D4F8A820D8F8001021F0E0611143C8F84B
:102BB0000010E8E7386840F40030386004E0022193
:102BC000201D04F079F805466DB12E462088C0041A
:102BD0002BD5E06DB0F5005F20D00DDCA0B1B0F5D5
:102BE000805F0FD115E07A48A26C001F016821F0C8
:102BF000300111430160E9E7B0F5405F13D0B0F553
:102C0000804F10D001250FE0386840F40030386064
:102C100009E00021201D04F04FF803E00098002196
:102C200004F0DAF8054685B12E462088800429D5BF
:102C3000206EB0F5403F23D010DC08B3B0F5803FE4
:102C400014D0B0F5003F0FD115E0E26DD9F80010B7
:102C500021F4E0411143C9F80010E6E7B0F5802FF8
:102C60000ED0B0F5A02F0BD001250AE00121201DC8
:102C700004F022F803E00098012104F0ADF80546C5
:102C80008DB12E46208840042AD5D4F8AC00B0F18E
:102C9000405F23D010DC08B3B0F1805F14D0B0F1F6
:102CA000005F0FD115E0226ED9F8001021F4E02169
:102CB0001143C9F80010E5E7B0F1804F0ED0B0F134
:102CC000A04F0BD001250AE00121201D03F0F4FFE5
:102CD00003E00098012104F07FF805466DB12E460F
:102CE000208800041FD5E06ED8B1B0F1805F0ED00F
:102CF000B0F1005F10D0012514E0D4F8AC20D8F872
:102D0000001021F0E0411143C8F80010E8E73868EE
:102D100040F40030386004E00121201D03F0CCFFB6
:102D200005466DB12E462068C0011ED5606CD0B13D
:102D300001280ED0022811D0032814D0012513E059
:102D4000E26ED9F8001021F040511143C9F800108B
:102D5000E9E7386840F40030386004E00221201DC3
:102D600003F0AAFF054685B12E462068DFF85CB067
:102D70004002ABF11C0B57D51648016841F4807135
:102D80000160FFF793FB82460EE01148626C001F62
:102D9000016821F0030111430160E6E7FFF786FBBC
:102DA000A0EB0A0064283DD80A480068C005F5D5A4
:102DB0007DBBDFF81CA0B4F8B0100AF1200ADAF8E5
:102DC000000001F4407100F4407005E02C4402580A
:102DD0005044025800480258884211D0DAF80010D6
:102DE000DAF8002021F4407142F48032CAF8002061
:102DF000DAF8002022F48032CAF80020CAF8001065
:102E0000D4F8B000B0F5807F21D1FFF74FFB0190DF
:102E100019E008E0FFF74AFB0199411A41F28830B6
:102E2000814210D903252E462078DFF82CA4C00754
:102E30003DD0A06F182838D026DC80B3082829D0D0
:102E4000102825D12CE0DAF800008007E2D5D4F86C
:102E5000B010C1F30120032858460DD0016821F4B9
:102E60007C510160B4F8B020DAF80010C2F30B0214
:102E70001143CAF80010D7E7F84A036802EA1112B2
:102E800023F47C511143ECE720280ED028280CD0E5
:102E900001250BE00121201D03F00EFF04E004E0FA
:102EA0000098012103F098FF05465DB12E46207879
:102EB00080071ED5606F062819D2DFE800F0160CD7
:102EC00011161616A26FDAF8001021F0380111431E
:102ED000CAF80010EBE70121201D03F0EDFE03E02E
:102EE0000098012103F078FF054675B100E0012547
:102EF0002E46207840071FD5D4F89000062819D216
:102F0000DFE800F0160C11161616626FDAF80010E2
:102F100021F007011143CAF80010EAE70121201D42
:102F200003F0CAFE03E00098012103F055FF0546B7
:102F30009DB100E001252E46207880062BD5D4F8DF
:102F40008C00B0F1405F24D011DC10B3B0F1805F91
:102F500015D0B0F1005F10D116E0D4F89020D8F869
:102F6000001021F007011143C8F80010E4E7B0F1A8
:102F7000804F0ED0B0F1A04F0BD001250AE0002108
:102F8000201D03F099FE03E00098022103F024FFC6
:102F900005468DB12E46207840062BD5D4F89800F2
:102FA000B0F5406F24D011DC10B3B0F5806F15D0B0
:102FB000B0F5006F10D116E0D4F88C20DAF80010CC
:102FC00021F0E0411143CAF80010E4E7B0F5805F5A
:102FD0000ED0B0F5A05F0BD001250AE00021201D26
:102FE00003F06AFE03E00098022103F0F5FE0546B7
:102FF0008DB12E46207800062BD5D4F89C00B0F574
:10300000C04F24D011DC10B3B0F5005F15D0B0F57F
:10301000804F10D116E0D4F89820D8F8001021F491
:10302000E0511143C8F80010E4E7B0F5004F0ED0AE
:10303000B0F5204F0BD001250AE00021201D03F040
:103040003BFE03E00098022103F0C6FE054665B38F
:103050002E46207800070BD5D4F88010B1F5805F9C
:103060002DD0DAF8002022F440520A43CAF800209A
:103070002078C0060BD5D4F89410B1F5807F26D007
:10308000D8F8002022F440720A43C8F800202068D3
:10309000000330D5D4F8A00008B3B0F5803F23D0AA
:1030A000B0F5003F25D0012524E0D4F89C20D8F8C5
:1030B000001021F460411143C8F80010C9E70098DE
:1030C000022103F089FE0028D2D00126D0E7009823
:1030D000022103F081FE0028D9D00126D7E7002184
:1030E000201D03F0E9FD03E00098022103F074FEC7
:1030F000054685B12E462068400322D5D4F88400C9
:10310000B0F5801F11D0B0F5001F13D0B0F5401FEF
:1031100015D0012514E0D4F8A020D8F8001021F42F
:1031200040311143C8F80010E5E7386840F400303A
:10313000386004E00098012103F04EFE054655B1C9
:103140002E462068C0031CD5E06C70B1B0F5803FFE
:1031500010D0012514E0D4F88420DAF8001021F40E
:1031600040111143CAF80010EBE7386840F4003012
:10317000386004E00221201D03F09EFD0546CDB11C
:103180002E462068800005D50098022103F024FE19
:1031900000B10126206880031BD5E06FB8B1B0F5FF
:1031A000807F10D0B0F5007F11D0B0F5407F0ED0F9
:1031B00001250DE02848E26C0838016821F48031CF
:1031C00011430160DDE7386840F400303860EDB34A
:1031D0002E462068C00207D5226FD9F8001021F0D2
:1031E00000411143C9F800102068C00008D5D4F888
:1031F000B420DBF8001021F480411143CBF800101B
:103200002068800207D5A26ED9F8001021F08071E5
:103210001143C9F80010206840000CD5DBF80010FD
:1032200021F40041CBF80010DBF80010D4F8B820EE
:103230001143CBF800102068002809DA0648226DF7
:103240000838016821F04051114300E008E00160B6
:103250007EB10120BDE8FC9F54440258CFFFFF001F
:10326000E26FDAF8001021F440711143CAF800103F
:10327000AFE70020EEE700002DE9F05F04000F4605
:103280007ED0DFF82482D8F8000000F00F00B842AA
:103290000CD2D8F8001021F00F013943C8F8001003
:1032A000D8F8000000F00F00B84269D120787F4DB7
:1032B00040070AD52069296801F07001884204D9C5
:1032C000296821F07001014329602078774E361D6E
:1032D00000070AD56069316801F07001884204D99D
:1032E000316821F07001014331602078C0060AD5B1
:1032F000A069316801F4E061884204D9316821F4A1
:10330000E061014331602078DFF8A0B180060BF165
:10331000080B0CD5E1695846DBF8002002F070027A
:10332000914204D9026822F070020A4302602078B8
:1033300080070AD5E068296801F00F01884204D9A6
:10334000296821F00F01014329602078C0073ED091
:103350005649A2682868183920F470601043286024
:103360006068022818D0032819D00968012819D0EC
:10337000490700294ADADFF834A1AAF1080A00E077
:1033800044E0DAF8002022F007020243CAF80020E5
:10339000FFF78CF8814612E009688903E9E70968BC
:1033A0008901E6E7C905E4E7FFF780F8A0EB09012A
:1033B00041F28830814202D90320BDE8F09F616864
:1033C000DAF8000000F03800B0EBC10FECD1207843
:1033D00080070AD5E068296801F00F01884204D20D
:1033E000296821F00F0101432960D8F800104046F8
:1033F00001F00F01B9420BD9016821F00F013943E7
:103400000160006800F00F00B84201D00120D4E74D
:10341000207840070AD52069296801F070018842A8
:1034200004D2296821F07001014329602078000747
:103430000AD56069316801F07001884204D23168B0
:1034400021F07001014331602078C0060AD5A069DF
:10345000316801F4E061884204D2316821F4E0610E
:1034600001433160207880060CD5E1695846DBF8CD
:10347000002002F07002914204D2026822F0700231
:103480000A43026000F054F82968094AC1F3032195
:10349000515C01F01F01C8400649086006480068F9
:1034A000BDE8F05FFFF73CB8002000521844025816
:1034B00062CC0008280000202000002010B5FFF793
:1034C00013F9064A06491268064B02F00F029A5C8D
:1034D00002F01F02D040086010BD000018440258DE
:1034E0002C00002062CC000810B5FFF7E7FF05496B
:1034F0000968054AC1F30211515C01F01F01C8407F
:1035000010BD00001C44025862CC000810B5FFF743
:10351000D5FF05490968054AC1F30221515C01F054
:103520001F01C84010BD00001C44025862CC0008B6
:10353000454970B545480968434B103B11F03802C6
:1035400008D00111082A03D0102A0BD0182A0BD05A
:10355000084670BD19688906FBD51968C1F3C10119
:10356000C84070BD3A4870BD3749374D18310C1D01
:1035700024350A68096826682D6802F0030406F0FD
:103580000102C1F30511C5F3CC0515FB02F200EEF3
:10359000102AB8EE400AE9B32F4ADFED2E0AB7EE43
:1035A000001A6CB1DFED2D1A012C01D0022C43D092
:1035B00002EE101A1068F8EE422A81EEA22A1EE0EE
:1035C0001C68A40611D51B6801EE901A1168C3F39C
:1035D000C103F8EE612AD84001EE900AC1F3080059
:1035E000F8EE611A81EEA22A0BE001EE901ADFEDEF
:1035F0001C2A00BFF8EE611A106882EEA12AC0F3FF
:10360000080001EE900AF8EE611A40EE201A31EE41
:10361000810A00E015E022EE000A1068C0F346209F
:10362000401C00EE900AF8EE600A80EE201ABCEE14
:10363000C10A10EE100A70BD01EE901ADFED092AE2
:10364000D8E7002070BD0000104402580090D0035D
:1036500000127A0000000039304402580024744AF5
:103660000024744C0024F44A2DE9F05F04007DD05E
:10367000FF4F2078FE4D1837DFF8F493103DC00758
:1036800048D0D9F80000396800F03800102815D06B
:10369000182803D101F0030002280FD06068B0F5AC
:1036A000803F12D010B1B0F5A02F18D0286820F4B8
:1036B00080302860286820F4802009E02868800392
:1036C00028D560680028D2D024E0286840F48030F3
:1036D0002860606888B1FEF7E9FE064609E02868C0
:1036E00040F480202860F0E7FEF7E0FE801B6428AD
:1036F0006FD828688003F7D50CE0FEF7D7FE0646A2
:1037000005E000BFFEF7D2FE801B6428F0D82868D1
:103710008003F7D4207841F20308D54E0C3E800791
:1037200061D5D9F80000396810F038000ED018289B
:1037300001D188070AD0E06880B3296821F0190117
:1037400001432960FEF7B2FE82462FE02868400759
:1037500002D5E06800288AD0E168286820F01900C6
:1037600008432860FEF7A2FE824607E0D1E000BFD2
:10377000FEF79CFEA0EB0A000228B9D82868400793
:10378000F6D500BFFEF78CFE404513D8206931689E
:1037900021F47C3141EA0030306024E011E000BFC8
:1037A000FEF784FEA0EB0A000228A1D82868400793
:1037B000F6D5E7E7207C316821F0FE4141EA006060
:1037C000EAE7286820F001002860FEF76FFE8246D5
:1037D00006E0FFE0FEF76AFEA0EB0A00022887D8A9
:1037E00028684007F6D42078C00657D5D9F80000DD
:1037F000DFF87CB2396800F03800ABF1040B082820
:1038000010D0182803D101F0030001280AD0E06984
:103810000028286832D040F080002860FEF746FE7D
:10382000824623E02868C00523D5E069802870D14E
:103830001FE000BF94F82000316821F0F84141EA10
:10384000806030602AE000BF94F82010DBF8002090
:1038500022F07C5242EA0161CBF800101EE000BF6A
:10386000FEF724FEA0EB0A00022886D82868C005CF
:10387000F6D5FEF715FE4045E6D8DBE720F08000E0
:103880002860FEF713FE064605E000BFFEF70EFEB9
:10389000801B022889D82868C005F7D42078000743
:1038A00029D573486169643000298046016811D0C8
:1038B00041F001010160FEF7F9FD064605E000BF99
:1038C000FEF7F4FD801B022889D8D8F80000800795
:1038D000F6D510E021F001010160FEF7E7FD064694
:1038E00005E000BFFEF7E2FD801B022872D8D8F881
:1038F00000008007F6D42078800623D5A069002830
:10390000286810D040F480502860FEF7CFFD0646AE
:1039100005E0E6E0FEF7CAFD801B02285AD82868B9
:103920008004F7D50EE020F480502860FEF7BEFD3D
:10393000064604E0FEF7BAFD801B02284AD8286834
:103940008004F7D4207840074FD5DFF82881D8F8D5
:10395000001041F48071C8F80010FEF7A7FD06467C
:1039600005E000BFFEF7A2FD801B642832D8D8F81E
:103970000000C005F6D53E4EA068603601280AD08A
:1039800008B1052813D0306820F00100306030689D
:1039900020F0040002E0306840F001003060A068D0
:1039A00041F2883A90B1FEF781FD80460AE0306826
:1039B00040F004003060EEE7FEF778FDA0EB080170
:1039C000514507D830688007F6D50EE0FEF76EFD4A
:1039D000804607E084E000BFFEF768FDA0EB080129
:1039E00051457DD830688007F6D4606AF0B3D9F8C5
:1039F0000010C1F3C201032973D00228286820F007
:103A00008070286003D0FEF751FD044680E0FEF789
:103A10004DFD064605E000BFFEF748FD801B02286D
:103A200073D828688001F7D4E26A40F2F33138682D
:103A300054F8283F884340EA021018433860217B3D
:103A40004FF4FE0C22894FF0FE47208A4902084BB2
:103A5000521E267DA1F5007189B2401EC2F30802F4
:103A600020331143761E0CEA004005E053E00000CD
:103A70001044025800480258014307EA0662181F22
:103A8000114319601A1D016821F0010101601168DC
:103A90004FF6F876236AB14341EAC3011160016829
:103AA000A26921F00C01114301600168E26921F073
:103AB000020111430160016841F480310160016835
:103AC00041F400310160016841F480210160016826
:103AD00041F001010160286840F08070286001E039
:103AE00013E01AE0FEF7E2FC044604E0FEF7DEFC19
:103AF000001B022809D828688001F7D50BE000BF19
:103B0000FEF7D4FC001B022802D90320BDE8F09F79
:103B100028688001F4D40020F8E70120F6E70000CF
:103B200070B5040015460E4603D094F8450010B158
:103B300007E0012070BD002084F84400204600F01A
:103B400025F8206804F10801FDF7FCF8A268314669
:103B50002068FDF73DF9E36A2946D4E90102FDF743
:103B6000D1F8A16801232068074A50F8215045F098
:103B7000010540F82150106840F00040106084F8C2
:103B80004530002070BD000000400052FEF70CBB25
:103B900004284FF0E020016903D021F00401016105
:103BA000704741F00401FAE7401EB0F1807F10B584
:103BB00001D3012010BD4FF0E02460610F21601798
:103BC00004F0ABFA0020A0610721216110BD30B5DF
:103BD00090F87C10012918D0012280F87C20242143
:103BE000C0F880100022202450F8601B0B680D687C
:103BF00023F0005325F001050D60426050F8601C71
:103C00000B6004620277104630BD022030BD70B5F3
:103C1000044690F87C0001281DD0012284F87C2005
:103C20002420C4F8800020680568026822F00102A0
:103C300002602068826822F060620A438260204647
:103C400003F04AFB2268202100201560C4F8801090
:103C500084F87C0070BD022070BD70B5044690F8F9
:103C60007C0001281DD0012284F87C202420C4F887
:103C7000800020680568026822F001020260206866
:103C8000826822F060420A438260204603F024FBEF
:103C90002268202100201560C4F8801084F87C0080
:103CA00070BD022070BD10B5040003D0D4F88000B0
:103CB00010B107E0012010BD002084F87C002046F0
:103CC00000F026F82420C4F880002068016821F064
:103CD00001010160204603F0C5FB0128EBD0A06A7A
:103CE00010B1204603F02AFB2068416821F490417E
:103CF00041602068816821F02A01816020680168A4
:103D000041F0010101602046BDE8104003F07ABB9C
:103D100010B586B0044614216846FCF7A4FB13498D
:103D20002068884220D11248016841F010010160EA
:103D3000006800F0100005900D481038016841F04F
:103D40000101016000680723022200F001000590D4
:103D500000204FF4C06100916946CDE90120CDE912
:103D600003030448FEF794FA06B010BD00100140AA
:103D7000F044025800000258FEE700000B4970B5FD
:103D80000646088800244D8821464543204602F017
:103D9000DBFB02F0D9FDB0B24FF0D84103E000BF29
:103DA000A1F88000641CAC42FAD370BD3000002042
:103DB0002DE9F04F36492C2300284FF02A094FF403
:103DC000305E4FF02B044FF4487545F2105B88715C
:103DD00008464FF4A0774FF0F00C4FF4F07249F220
:103DE0004138808845F210360CD00F804045BA46E5
:103DF000A1F802C001D0B0422AD10B81A1F80A90EB
:103E00008C813AE0A1F800C040454F8001D0B0421B
:103E100008D10B81B042A1F80A908C8132D10F8079
:103E20004A802FE0584508D1A1F808E04FF4285403
:103E30004C814FF42C538B8107E0A0F5C856633EAC
:103E400020D10B814C81A1F80C900A804D8019E0A3
:103E5000584508D1A1F808E04FF428544C814FF49C
:103E60002C578F8107E0A0F5C857633F05D10B8120
:103E7000A1F80A908C810D804A80B04202D10A805C
:103E8000A1F802A00020BDE8F04F02F081BA0000C6
:103E9000300000202DE9F041354C060A90460246DC
:103EA00020460D460F0AA1884089A1F51343413BE6
:103EB0000CD0A1F5A643103B08D0A1F5AA43103BB6
:103EC00010D0A1F5C853633B25D048E002F02AFD8D
:103ED000304602F01BFDD0B202F018FDA08902F0BE
:103EE00021FD36E002F01EFD304602F00FFD608934
:103EF000401C80B202F016FDD0B202F007FDA0898E
:103F000002F010FD384602F001FDA089401C80B28D
:103F100002F008FD20E0A17919B92188891A491E0B
:103F20008AB202F0FFFC160A304602F0EFFCD0B273
:103F300002F0ECFC304602F0E9FCD0B202F0E6FC04
:103F4000A08902F0EFFC384602F0E0FCE8B202F093
:103F5000DDFC384602F0DAFCE8B202F0D7FC4FF0A4
:103F6000D8412289A1F87E20A1F88080BDE8F081A7
:103F7000300000202DE9F04381460C46A2EB0901F8
:103F80001F460798491C8DB286B24FF0D84810E002
:103F90002146484602F0D8FA02F0D6FC00204146FD
:103FA00003E0401CA1F8806080B2A842F9D3641CF1
:103FB000A4B2BC42ECD9BDE8F08300002DE9F04F7B
:103FC000FE488DB0016841F00201016000680321E4
:103FD000DFF8ECB34FF4004A00F002000C9001202F
:103FE0005446CDE9020169465D46CDE900A0584638
:103FF000FEF74EF9012221462846FEF74CFA02F060
:104000006DF9D32002F08EFC02F08DF9ED4CA0800A
:1040100002F089F9A08002F086F94FF6FF7909EAEB
:104020000020A08002F07FF9A18849F2413645F2D4
:10403000103745F21055084341F66318B042A0808E
:1040400049D0D42002F06EFC02F06DF9A08002F09D
:104050006AF9A08002F067F909EA00204A46A080C8
:1040600002F061F9A1880843A080B84233D04FF430
:104070005A4002F057FC02F056F9A0804FF45B4022
:1040800002F050FC02F04FF902EA0020A0804FF449
:104090005C4002F047FC02F046F9A1880843A0808A
:1040A000504502D1A58001F0B9B8A84213D0A12093
:1040B00002F038FC02F037F9A08002F034F902EA8D
:1040C0000020A08002F02FF9A2881043A080A0F564
:1040D000AE4161397ED080B2B0427CD1CF2002F0B7
:1040E00021FC002002F012FCC12002F00FFC302065
:1040F00002F00CFCED2002F015FC642002F006FC3E
:10410000032002F003FC122002F000FC812002F0E8
:10411000FDFBE82002F006FC852002F0F7FB1020F2
:1041200002F0F4FB7A2002F0F1FBCB2002F0FAFB64
:10413000392002F0EBFB2C2002F0E8FB002002F01B
:10414000E5FB342002F0E2FB022002F0DFFBF72067
:1041500002F0E8FB202002F0D9FBEA2002F0E2FBAB
:10416000002002F0D3FB002002F0D0FBC02002F0C0
:10417000D9FB1B2002F0CAFBC12002F0D3FB0120B7
:1041800002F0C4FBC52002F0CDFB302002F0BEFBE4
:10419000302002F0BBFBC72002F0C4FBB72002F0C6
:1041A000B5FB362002F0BEFB482002F0AFFB3A2000
:1041B00002F0B8FB552002F0A9FBB12002F0B2FBDF
:1041C000002002F0A3FB1A2002F0A0FBB62002F0B0
:1041D000A9FB01E099E09CE00A2002F097FBA220F5
:1041E00002F094FBF22002F09DFB002002F08EFB17
:1041F000262002F097FB012002F088FBE02002F06D
:1042000091FB0F2002F082FB2A2002F07FFB282086
:1042100002F07CFB082002F079FB0E2002F076FB16
:10422000082002F073FB542002F070FBA92002F07A
:104230006DFB432002F06AFB0A2002F067FB0F20AF
:1042400002F064FB002002F061FB002002F05EFB44
:10425000002002F05BFB002002F058FBE12002F09E
:1042600061FB002002F052FB152002F04FFB1720EB
:1042700002F04CFB072002F049FB112002F046FB44
:10428000062002F043FB2B2002F040FB562002F0F8
:104290003DFB3C2002F03AFB052002F037FB1020EA
:1042A00002F034FB0F2002F031FB3F2002F02EFB26
:1042B0003F2002F02BFB0F2002F028FB2B2002F006
:1042C00031FB002002F022FB002002F01FFB012046
:1042D00002F01CFB3F2002F019FB2A2002F022FB17
:1042E000002002F013FB002002F010FB002002F07F
:1042F0000DFBEF2002F00AFB112002F013FB7820E7
:10430000FDF740FF292001F009BFA4F8048001F067
:104310000ABFB8427DD1ED2002F004FB012002F07B
:10432000F5FAFE2002F0F2FAEE2002F0FBFADE20AF
:1043300002F0ECFA212002F0E9FAF12002F0F2FAA0
:10434000012002F0E3FADF2002F0ECFA102002F084
:10435000DDFAC42002F0E6FA8F2002F0D7FAC62078
:1043600002F0E0FA002002F0D1FAE22002F0CEFAE8
:10437000E22002F0CBFAE22002F0C8FABF2002F0FD
:10438000D1FAAA2002F0C2FAB02002F0CBFA0D2036
:1043900002F0BCFA002002F0B9FA0D2002F0B6FAE1
:1043A000002002F0B3FA112002F0B0FA002002F06F
:1043B000ADFA192002F0AAFA002005E0E044025804
:1043C000000402583000002002F0A0FA212002F080
:1043D0009DFA002002F09AFA2D2002F097FA0020B0
:1043E00002F094FA3D2002F091FA002002F08EFAD9
:1043F0005D2002F08BFA002002F088FA5D2002F0C6
:1044000085FA002002F082FAB12002F08BFA8020B7
:1044100000E0FCE302F07AFA002002F077FA8B2049
:1044200002F074FA002002F071FA962002F06EFA9F
:10443000002002F06BFAB22002F074FA002002F0C1
:1044400065FA002002F062FA022002F05FFA002012
:1044500002F05CFA032002F059FA002002F056FA4A
:10446000B32002F05FFA002002F050FA002002F0C0
:104470004DFA002002F04AFA002002F047FA00202C
:1044800002F044FA002002F041FA002002F03EFA65
:10449000002002F03BFA002002F038FA002002F07F
:1044A00035FA002002F032FA002002F02FFA002044
:1044B00002F02CFA002002F029FA002002F026FA7D
:1044C000002002F023FA002002F020FA002002F07F
:1044D0001DFA002002F01AFA002002F017FA00205C
:1044E00002F014FA002002F011FA002002F00EFA95
:1044F000002002F00BFAB42002F014FA8B2002F034
:1045000005FA002002F002FA962002F0FFF90020DE
:1045100002F0FCF9A12002F0F9F9002002F0F6F90E
:10452000B52002F0FFF9022002F0F0F9002002F0BD
:10453000EDF9032002F0EAF9002002F0E7F9042087
:1045400002F0E4F9002002F0E1F9B62002F0EAF905
:10455000002002F0DBF9002002F0D8F9B72002F0C9
:10456000E1F9002002F0D2F9002002F0CFF93F205B
:1045700002F0CCF9002002F0C9F95E2002F0C6F981
:10458000002002F0C3F9642002F0C0F9002002F01C
:10459000BDF98C2002F0BAF9002002F0B7F9AC2086
:1045A00002F0B4F9002002F0B1F9DC2002F0AEF91B
:1045B000002002F0ABF9702002F0A8F9002002F010
:1045C000A5F9902002F0A2F9002002F09FF9EB205B
:1045D00002F09CF9002002F099F9DC2002F096F933
:1045E000002002F093F9B82002F09CF9002002F0BC
:1045F0008DF9002002F08AF9002002F087F90020EE
:1046000002F084F9002002F081F9002002F07EF926
:10461000002002F07BF9002002F078F9BA2002F0C5
:1046200081F9242002F072F9002002F06FF90020D5
:1046300002F06CF9002002F069F9C12002F072F971
:10464000202002F063F9002002F060F9542002F00B
:104650005DF9002002F05AF9FF2002F057F900201E
:1046600002F054F9C22002F05DF90A2002F04EF97E
:10467000002002F04BF9042002F048F9002002F07B
:1046800045F9C32002F04EF93C2002F03FF900202A
:1046900002F03CF93A2002F039F9002002F036F934
:1046A000392002F033F9002002F030F9372002F00F
:1046B0002DF9002002F02AF93C2002F027F9002011
:1046C00002F024F9362002F021F9002002F01EF950
:1046D000322002F01BF9002002F018F92F2002F01E
:1046E00015F9002002F012F92C2002F00FF9002039
:1046F00002F00CF9292002F009F9002002F006F975
:10470000262002F003F9002002F000F9242002F034
:10471000FDF8002002F0FAF8242002F0F7F800205B
:1047200002F0F4F8232002F0F1F8002002F0EEF895
:104730003C2002F0EBF8002002F0E8F8362002F00E
:10474000E5F8002002F0E2F8322002F0DFF8002065
:1047500002F0DCF82F2002F0D9F8002002F0D6F8A1
:104760002C2002F0D3F8002002F0D0F8292002F02B
:10477000CDF8002002F0CAF8262002F0C7F8002089
:1047800002F0C4F8242002F0C1F8002002F0BEF8C4
:10479000242002F0BBF8002002F0B8F8232002F039
:1047A000B5F8002002F0B2F8C42002F0BBF8622095
:1047B00002F0ACF8002002F0A9F8052002F0A6F8FB
:1047C000002002F0A3F8842002F0A0F8002002F0FC
:1047D0009DF8F02002F09AF8002002F097F81820D7
:1047E00002F094F8002002F091F8A42002F08EF874
:1047F000002002F08BF8182002F088F8002002F068
:1048000085F8502002F082F8002002F07FF80C209A
:1048100002F07CF8002002F079F8172002F076F818
:10482000002002F073F8952002F070F8002002F0EA
:104830006DF8F32002F06AF8002002F067F8E62035
:1048400002F064F8002002F061F8C52002F06AF876
:10485000322002F05BF8002002F058F8442002F009
:1048600055F8002002F052F8652002F04FF80020C1
:1048700002F04CF8762002F049F8002002F046F8E9
:10488000882002F043F8002002F040F8C62002F031
:1048900049F8202002F03AF8002002F037F81720FB
:1048A00002F034F8002002F031F8012002F02EF876
:1048B000002002F02BF8C72002F034F8002002F0AC
:1048C00025F8002002F022F8002002F01FF8002056
:1048D00002F01CF8C82002F025F8002002F016F8BB
:1048E000002002F013F8002002F010F8002002F07F
:1048F0000DF8C92002F016F8002002F007F8002099
:1049000002F004F8002002F001F8002001F0FEFFA0
:10491000002001F0FBFF002001F0F8FF002001F073
:10492000F5FF002001F0F2FF002001F0EFFF002072
:1049300001F0ECFF002001F0E9FF002001F0E6FFAC
:10494000002001F0E3FF002001F0E0FF002001F073
:10495000DDFF002001F0DAFFE02001F0E3FF162088
:1049600001F0D4FF002001F0D1FF1C2001F0CEFFA8
:10497000002001F0CBFF212001F0C8FF002001F052
:10498000C5FF362001F0C2FF002001F0BFFF462026
:1049900001F0BCFF002001F0B9FF522001F0B6FF8A
:1049A000002001F0B3FF642001F0B0FF002001F00F
:1049B000ADFF7A2001F0AAFF002001F0A7FF8B20B5
:1049C00001F0A4FF002001F0A1FF992001F09EFF5B
:1049D000002001F09BFFA82001F098FF002001F0CB
:1049E00095FFB92001F092FF002001F08FFFC42055
:1049F00001F08CFF002001F089FFCA2001F086FF42
:104A0000002001F083FFD22001F080FF002001F0A0
:104A10007DFFD92001F07AFF002001F077FFE02030
:104A200001F074FF002001F071FFF32001F06EFF30
:104A3000002001F06BFFE12001F074FF162001F06F
:104A400065FF002001F062FF1C2001F05FFF0020E5
:104A500001F05CFF222001F059FF002001F056FF19
:104A6000362001F053FF002001F050FF452001F0F7
:104A70004DFF002001F04AFF522001F047FF0020C7
:104A800001F044FF642001F041FF002001F03EFFEF
:104A90007A2001F03BFF002001F038FF8B2001F06D
:104AA00035FF002001F032FF992001F02FFF002098
:104AB00001F02CFFA82001F029FF002001F026FFC3
:104AC000B92001F023FF002001F020FFC42001F0F5
:104AD0001DFF002001F01AFFCA2001F017FF00207F
:104AE00001F014FFD22001F011FF002001F00EFFB1
:104AF000D82001F00BFF002001F008FFE02001F0BA
:104B000005FF002001F002FFF32001F0FFFE00206E
:104B100001F0FCFEE22001F005FF052001F0F6FEA9
:104B2000002001F0F3FE0B2001F0F0FE002001F068
:104B3000EDFE1B2001F0EAFE002001F0E7FE34202C
:104B400001F0E4FE002001F0E1FE442001F0DEFE71
:104B5000002001F0DBFE4F2001F0D8FE002001F024
:104B6000D5FE612001F0D2FE002001F0CFFE7920B9
:104B700001F0CCFE002001F0C9FE882001F0C6FE45
:104B8000002001F0C3FE972001F0C0FE002001F0DC
:104B9000BDFEA62001F0BAFE002001F0B7FEB7204E
:104BA00001F0B4FE002001F0B1FEC22001F0AEFE23
:104BB000002001F0ABFEC72001F0A8FE002001F0AC
:104BC000A5FED12001F0A2FE002001F09FFED6201C
:104BD00001F09CFE002001F099FEDD2001F096FE20
:104BE000002001F093FEF32001F090FE002001F080
:104BF0008DFEE32001F096FE052001F087FE0020E7
:104C000001F084FE0A2001F081FE002000E003E3B1
:104C100001F07CFE1C2001F079FE002001F076FE00
:104C2000332001F073FE002001F070FE442001F0FB
:104C30006DFE002001F06AFE502001F067FE0020AA
:104C400001F064FE622001F061FE002001F05EFED2
:104C5000782001F05BFE002001F058FE882001F072
:104C600055FE002001F052FE972001F04FFE00207B
:104C700001F04CFEA62001F049FE002001F046FEA6
:104C8000B72001F043FE002001F040FEC22001F0F9
:104C90003DFE002001F03AFEC72001F037FE002063
:104CA00001F034FED12001F031FE002001F02EFE93
:104CB000D52001F02BFE002001F028FEDD2001F0C0
:104CC00025FE002001F022FEF32001F01FFE00204F
:104CD00001F01CFEE42001F025FE012001F016FE8B
:104CE000002001F013FE012001F010FE002001F071
:104CF0000DFE022001F00AFE002001F007FE2A202E
:104D000001F004FE002001F001FE3C2001F0FEFD58
:104D1000002001F0FBFD4B2001F0F8FD002001F028
:104D2000F5FD5D2001F0F2FD002001F0EFFD7420A3
:104D300001F0ECFD002001F0E9FD842001F0E6FD2A
:104D4000002001F0E3FD932001F0E0FD002001F0E0
:104D5000DDFDA22001F0DAFD002001F0D7FDB32037
:104D600001F0D4FD002001F0D1FDBE2001F0CEFD08
:104D7000002001F0CBFDC42001F0C8FD002001F0AF
:104D8000C5FDCD2001F0C2FD002001F0BFFDD32004
:104D900001F0BCFD002001F0B9FDDD2001F0B6FD01
:104DA000002001F0B3FDF32001F0B0FD002001F080
:104DB000ADFDE52001F0B6FD002001F0A7FD0020CB
:104DC00001F0A4FD002001F0A1FD002001F09EFDF6
:104DD000022001F09BFD002001F098FD292001F048
:104DE00095FD002001F092FD3C2001F08FFD002098
:104DF00001F08CFD4B2001F089FD002001F086FDC3
:104E00005D2001F083FD002001F080FD742001F0A1
:104E10007DFD002001F07AFD842001F077FD002067
:104E200001F074FD932001F071FD002001F06EFD92
:104E3000A22001F06BFD002001F068FDB32001F01D
:104E400065FD002001F062FDBE2001F05FFD002045
:104E500001F05CFDC42001F059FD002001F056FD79
:104E6000CD2001F053FD002001F050FDD32001F0D2
:104E70004DFD002001F04AFDDC2001F047FD00203F
:104E800001F044FDF32001F041FD002001F03EFD62
:104E9000E62001F047FD112001F038FD002001F06F
:104EA00035FD342001F032FD002001F02FFD5620A9
:104EB00001F02CFD002001F029FD762001F026FDF7
:104EC000002001F023FD772001F020FD002001F0FB
:104ED0001DFD662001F01AFD002001F017FD88205D
:104EE00001F014FD002001F011FD992001F00EFDEC
:104EF000002001F00BFDBB2001F008FD002001F0B7
:104F000005FD992001F002FD002001F0FFFC662064
:104F100001F0FCFC002001F0F9FC552001F0F6FC4A
:104F2000002001F0F3FC552001F0F0FC002001F01E
:104F3000EDFC452001F0EAFC002001F0E7FC4320F5
:104F400001F0E4FC002001F0E1FC442001F0DEFC73
:104F5000002001F0DBFCE72001F0E4FC322001F04E
:104F6000D5FC002001F0D2FC552001F0CFFC002040
:104F700001F0CCFC762001F0C9FC002001F0C6FC59
:104F8000662001F0C3FC002001F0C0FC672001F0A6
:104F9000BDFC002001F0BAFC672001F0B7FC002046
:104FA00001F0B4FC872001F0B1FC002001F0AEFC60
:104FB000992001F0ABFC002001F0A8FCBB2001F01F
:104FC000A5FC002001F0A2FC992001F09FFC00202C
:104FD00001F09CFC772001F099FC002001F096FC88
:104FE000442001F093FC002001F090FC562001F0D9
:104FF0008DFC002001F08AFC232001F087FC0020BA
:1050000001F084FC332001F081FC002001F07EFCE3
:10501000452001F07BFC002001F078FCE82001F045
:1050200081FC002001F072FC002001F06FFC99204F
:1050300001F06CFC002001F069FC872001F066FCA7
:10504000002001F063FC882001F060FC002001F0EA
:105050005DFC772001F05AFC002001F057FC66202F
:1050600001F054FC002001F051FC882001F04EFCBE
:10507000002001F04BFCAA2001F048FC002001F0C8
:1050800045FCBB2001F042FC002001F03FFC9920D0
:1050900001F03CFC002001F039FC662001F036FCF8
:1050A000002001F033FC552001F030FC002001F01D
:1050B0002DFC552001F02AFC002001F027FC4420A3
:1050C00001F024FC002001F021FC442001F01EFC32
:1050D000002001F01BFC552001F018FC002001F01D
:1050E00015FCE92001F01EFCAA2001F00FFC0020B5
:1050F00001F00CFC002001F009FC002001F006FC8E
:10510000002001F00FFCAA2001F000FCCF2001F0EC
:1051100009FC002001F0FAFB002001F0F7FB002061
:1051200001F0F4FB002001F0F1FB002001F0EEFBA8
:10513000002001F0EBFB002001F0E8FB002001F073
:10514000E5FB002001F0E2FB002001F0DFFB002086
:1051500001F0DCFB002001F0D9FB002001F0D6FBC0
:10516000002001F0D3FB002001F0D0FB002001F073
:10517000CDFB002001F0CAFBF02001F0D3FB0020A2
:1051800001F0C4FB502001F0C1FB002001F0BEFB88
:10519000002001F0BBFB002001F0B8FBF32001F080
:1051A000C1FB002001F0B2FBF92001F0BBFB06209F
:1051B00001F0ACFB102001F0A9FB292001F0A6FBB7
:1051C000002001F0A3FB3A2001F0ACFB552001F0D8
:1051D0009DFB112001F0A6FB6420FCF7D3FF2920E2
:1051E00001F0A0FB352001F09DFB002001F08EFBBB
:1051F000512001F097FBFF2001F088FB532001F0C4
:1052000091FB2C2001F082FB552001F08BFB8220CA
:1052100001F07CFB2C20FDE3A8427DD14FF47043CC
:105220005521184601F09AFB4FF2010AAA21504677
:1052300001F094FB52214FF2020001F08FFB082194
:105240004FF2030001F08AFB01214FF2040001F04C
:1052500085FB0D214FF4304001F080FB0D214BF216
:10526000010001F07BFB0D214BF2020001F076FB07
:1052700034214FF4364001F071FB34214BF20160D0
:1052800001F06CFB34214BF2026001F067FB0D2151
:105290004FF4314001F062FB0D214BF2011001F09F
:1052A0005DFB0D214BF2021001F058FB34214FF44D
:1052B000374001F053FB34214BF2017001F04EFBFB
:1052C00034214BF2027001F049FB00214FF43240CF
:1052D00001F044FB00214BF2012001F03FFB0021D3
:1052E0004BF2022001F03AFB24214FF4384001F048
:1052F00035FB24214BF6010001F030FB24214BF655
:10530000020001F02BFB01214FF43F4001F026FB8E
:105310000F214FF4334000E0FEE301F01FFB0F21AB
:105320004BF2013001F01AFB0F214BF2023001F079
:1053300015FB34214FF4394001F010FB34214BF6BA
:10534000011001F00BFB34214BF6021001F006FBBB
:1053500008214FF4354001F001FB08214BF20150C8
:1053600001F0FCFA08214BF2025001F0F7FA032198
:105370004FF4424001F0F2FA24214FF43A4001F098
:10538000EDFA24214BF6012001F0E8FA24214BF636
:10539000022001F0E3FA00214FF43C4001F0DEFA74
:1053A00078214BF6014001F0D9FA00214BF602407A
:1053B00001F0D4FA00214FF43D4001F0CFFA7821FA
:1053C0004BF6015001F0CAFA00214BF6025001F0F1
:1053D000C5FA00214FF43E4001F0C0FA64214BF6BB
:1053E000016001F0BBFA00214FF4514001F0B6FA20
:1053F00033214DF2011001F0B1FA00214DF20210FB
:1054000001F0ACFA34214DF2031001F0A7FA0021AB
:105410004DF2041001F0A2FA3A214DF2051001F00C
:105420009DFA00214DF2061001F098FA4A214DF242
:10543000071001F093FA00214DF2081001F08EFAE6
:105440005C214DF2091001F089FA00214DF20A1099
:1054500001F084FA81214DF20B1001F07FFA002156
:105460004DF20C1001F07AFAA6214DF20D1001F068
:1054700075FA00214DF20E1001F070FAE5214DF29F
:105480000F1001F06BFA01214DF2101001F066FAD5
:1054900013214DF2111001F061FA01214DF21210A9
:1054A00001F05CFA54214DF2131001F057FA01217A
:1054B0004DF2141001F052FA82214DF2151001F054
:1054C0004DFA01214DF2161001F048FACA214DF2B1
:1054D000171001F043FA02214DF2181001F03EFAC4
:1054E00000214DF2191001F039FA02214DF21A1083
:1054F00001F034FA01214DF21B1001F02FFA0221C4
:105500004DF21C1001F02AFA34214DF21D1001F069
:1055100025FA02214DF21E1001F020FA67214DF20A
:105520001F1001F01BFA02214DF2201001F016FAB3
:1055300084214DF2211001F011FA02214DF22210C6
:1055400001F00CFAA4214DF2231001F007FA022118
:105550004DF2241001F002FAB7214DF2251001F0AE
:10556000FDF902214DF2261001F0F8F9CF214DF29C
:10557000271001F0F3F902214DF2281001F0EEF9A5
:10558000DE214DF2291001F0E9F902214DF22A1035
:1055900001F0E4F9F2214DF22B1001F0DFF90221C4
:1055A0004DF22C1001F0DAF9FE214DF22D1001F030
:1055B000D5F903214DF22E1001F0D0F910214DF252
:1055C0002F1001F0CBF903214DF2301001F0C6F994
:1055D00033214DF2311001F0C1F903214DF23210A7
:1055E00001F0BCF96D214DF2331001F0B7F9002143
:1055F0004FF4524001F0B2F933214DF2012001F095
:10560000ADF900214DF2022001F0A8F934214DF24C
:10561000032001F0A3F900214DF2042001F09EF9CE
:105620003A214DF2052001F099F900214DF20620B2
:1056300001F094F94A214DF2072001F08FF9002181
:105640004DF2082001F08AF95C214DF2092001F0A9
:1056500085F900214DF20A2001F080F981214DF2F7
:105660000B2001F07BF900214DF20C2001F076F9BE
:10567000A6214DF20D2001F071F900214DF20E200E
:1056800001F06CF9E5214DF20F2001F067F90121DD
:105690004DF2102001F062F913214DF2112001F0BA
:1056A0005DF901214DF2122001F058F954214DF21B
:1056B000132001F053F901214DF2142001F04EF9AD
:1056C00082214DF2152001F049F901214DF21620F9
:1056D00001F044F9CA214DF2172001F03FF90221EF
:1056E0004DF2182001F03AF900214DF2192001F095
:1056F00035F902214DF21A2001F030F901214DF265
:105700001B2001F02BF902214DF21C2001F026F99B
:1057100034214DF21D2001F021F902214DF21E200D
:1057200001F01CF967214DF21F2001F017F9022149
:105730004DF2202001F012F984214DF2212001F0D8
:105740000DF902214DF2222001F008F9A4214DF2B9
:10575000232001F003F902214DF2242001F0FEF88C
:10576000B7214DF2252001F0F9F802214DF2262053
:1057700001F0F4F8CF214DF2272001F0EFF80221DB
:105780004DF2282001F0EAF8DE214DF2292001F047
:10579000E5F802214DF22A2001F0E0F8F2214DF265
:1057A0002B2001F0DBF802214DF22C2001F0D6F87D
:1057B000FE214DF22D2001F0D1F803214DF22E20D3
:1057C00001F0CCF810214DF22F2001F0C7F8032191
:1057D0004DF2302001F0C2F833214DF2312001F0BA
:1057E000BDF803214DF2322001F0B8F86D214DF2E1
:1057F000332001F0B3F800214FF4534001F0AEF82C
:1058000033214DF2013001F0A9F800214DF20230B0
:1058100001F0A4F834214DF2033001F09FF800218B
:105820004DF2043001F09AF83A214DF2053001F0C2
:1058300095F800214DF2063001F090F84A214DF222
:10584000073001F08BF800214DF2083001F086F8A6
:105850005C214DF2093001F081F800214DF20A304F
:1058600001F07CF881214DF20B3001F077F8002136
:105870004DF20C3001F072F8A6214DF20D3001F01E
:105880006DF800214DF20E3001F068F8E5214DF27F
:105890000F3001F063F801214DF2103001F05EF895
:1058A00013214DF2113001F059F801214DF212305F
:1058B00001F054F854214DF2133001F04FF801215A
:1058C0004DF2143001F04AF882214DF2153001F00A
:1058D00045F801214DF2163001F040F8CA214DF291
:1058E000173001F03BF802214DF2183001F036F884
:1058F00000214DF2193001F031F802214DF21A3039
:1059000001F02CF801214DF21B3001F027F80221A3
:105910004DF21C3001F022F834214DF21D3001F01F
:105920001DF802214DF21E3001F018F867214DF2EA
:105930001F3001F013F802214DF2203001F00EF873
:1059400084214DF2213001F009F802214DF222307C
:1059500001F004F8A4214DF2233000F0FFFF0221F2
:105960004DF2243000F0FAFFB7214DF2253000F05F
:10597000F5FF02214DF2263000F0F0FFCF214DF26D
:10598000273000F0EBFF02214DF2283000F0E6FF57
:10599000DE214DF2293000F0E1FF02214DF22A30E4
:1059A00000F0DCFFF2214DF22B3000F0D7FF022196
:1059B0004DF22C3000F0D2FFFE214DF22D3000F0E0
:1059C000CDFF03214DF22E3000F0C8FF10214DF223
:1059D0002F3000F0C3FF03214DF2303000F0BEFF46
:1059E00033214DF2313000F0B9FF03214DF2323056
:1059F00000F0B4FF6D214DF2333000F0AFFF002115
:105A00004FF4544000F0AAFF33214DF2014000F062
:105A1000A5FF00E082E300214DF2024000F09EFF6E
:105A200034214DF2034000F099FF00214DF2044073
:105A300000F094FF3A214DF2054000F08FFF002165
:105A40004DF2064000F08AFF4A214DF2074000F077
:105A500085FF00214DF2084000F080FF5C214DF2EF
:105A6000094000F07BFF00214DF20A4000F076FF74
:105A700081214DF20B4000F071FF00214DF20C40EE
:105A800000F06CFFA6214DF20D4000F067FF0021F1
:105A90004DF20E4000F062FFE5214DF20F4000F0A4
:105AA0005DFF01214DF2104000F058FF13214DF22F
:105AB000114000F053FF01214DF2124000F04EFF63
:105AC00054214DF2134000F049FF01214DF21440E2
:105AD00000F044FF82214DF2154000F03FFF01210C
